1000120260701D000050000DEPOSITO INICIAL              
1000120260701S000012000SAQUE ATM                     
1000120260701T000020000TRANSF PIX MARIA              
1000120260701D000007500DEPOSITO BOLETO               
1000120260701X000003000OPERACAO INVALIDA             
1000120260701S000000000SAQUE VALOR ZERO              
1000120260701D000010000DEPOSITO TED                  
1000120260701T000015000TRANSF PIX JOAO               
1000120260701S000005000SAQUE LOTERICA                
1000120260701D000002500DEPOSITO DINHEIRO             
