00001JOAO SILVA                    1234567890100000150000A
00002MARIA SOUZA                   2345678901200000087550A
00003CARLOS LIMA                   3456789012300000005000A
00004ANA PEREIRA                   4567890123400000250000A
00005PAULO SANTOS                  5678901234500000000000A
00006FERNANDA COSTA                6789012345600000032000A
00007RICARDO ALMEIDA               7890123456700000120000A
00008JULIANA ROCHA                 8901234567800000065000A
00009MARCOS OLIVEIRA               9012345678900000007500A
00010PATRICIA GOMES                0123456789000000180000A
00011LUCAS MARTINS                 1122334455600000040000A
00012CAMILA RIBEIRO                2233445566700000099000A
00013ROBERTO BARBOSA               3344556677800000003000A
00014BEATRIZ MENDES                4455667788900000145000A
00015GUSTAVO NUNES                 5566778899000000025000A
00016HELENA DIAS                   6677889900100000070000I
00017RAFAEL FREITAS                7788990011200000110000I
00018LARISSA CAMPOS                8899001122300000055000I
00019EDUARDO MOREIRA               9900112233400000200000B
00020TATIANE AZEVEDO               0011223344500000033000B
